:020000040000FA
:100000000C945D000C9485000C9485000C94850084
:100010000C9485000C9485000C9485000C9485004C
:100020000C9485000C9485000C9485000C9485003C
:100030000C9485000C9485000C9485000C9485002C
:100040000C9424030C9485000C9494030C946E037C
:100050000C9485000C9485000C9485000C9485000C
:100060000C9485000C94850000000008000201003B
:100070000003040700000000000000000000000072
:10008000250028002B0000000000240027002A0083
:10009000040404040404040402020202020203032E
:1000A0000303030301020408102040800102040836
:1000B0001020010204081020D10411241FBECFEF2C
:1000C000D8E0DEBFCDBF11E0A0E0B1E0E0E5FAE0AE
:1000D00002C005900D92A432B107D9F721E0A4E245
:1000E000B1E001C01D92AC3CB207E1F710E0CDE5F4
:1000F000D0E004C02197FE010E942005CC35D10735
:10010000C9F70E94C6030C9426050C94000090E0E9
:10011000FC01EC55FF4F249180579F4FFC018491C7
:10012000882399F090E0880F991FFC01EA57FF4F50
:10013000A591B491FC01E458FF4F859194918FB73C
:10014000F894EC91E22BEC938FBF089590E0FC01C2
:10015000E859FF4F2491FC01EC55FF4F3491FC010D
:10016000E057FF4FE491EE23C9F0222339F023300A
:1001700001F1A8F4213019F1223029F1F0E0EE0F5D
:10018000FF1FE458FF4FA591B4918FB7F894EC91FD
:10019000611126C030953E233C938FBF08952730D0
:1001A000A9F02830C9F0243049F7809180008F7D74
:1001B00003C0809180008F7780938000DFCF84B56B
:1001C0008F7784BDDBCF84B58F7DFBCF8091B0006E
:1001D0008F778093B000D2CF8091B0008F7DF9CF20
:1001E0003E2BDACF1F93CF93DF93182FEB010E94A2
:1001F0008700209739F460E0812FDF91CF911F9124
:100200000C94A600CF3FD10511F461E0F5CFE12FAA
:10021000F0E0E859FF4FE491E33031F140F4E13090
:10022000B1F0E230E1F0C038D1057CF7E4CFE7303F
:1002300029F1E83059F1E430B1F780918000806213
:1002400080938000D0938B00C0938A0004C084B553
:10025000806884BDC7BDDF91CF911F91089584B59B
:10026000806284BDC8BDF7CF809180008068809394
:100270008000D0938900C0938800EDCF8091B000BA
:1002800080688093B000C093B300E5CF8091B00048
:1002900080628093B000C093B400DDCF3FB7F89484
:1002A00080912B0190912C01A0912D01B0912E01F4
:1002B00026B5A89B05C02F3F19F00196A11DB11DC1
:1002C0003FBFBA2FA92F982F8827BC01CD01620FFD
:1002D000711D811D911D42E0660F771F881F991FB8
:1002E0004A95D1F708958F929F92AF92BF92CF9285
:1002F000DF92EF92FF924B015C010E944E016B0175
:100300007C010E944E016C197D098E099F09683E8F
:10031000734081059105A8F321E0821A9108A10894
:10032000B10888EEC80E83E0D81EE11CF11C8114D0
:100330009104A104B10429F7FF90EF90DF90CF90D2
:10034000BF90AF909F908F900895AF92BF92CF9241
:10035000DF92EF92FF920F931F93CF93DF936C0185
:100360007B018B01040F151FEB015E01AE18BF0866
:10037000C017D10759F06991D601ED91FC91019018
:10038000F081E02DC6010995892B79F7C501DF9130
:10039000CF911F910F91FF90EF90DF90CF90BF9082
:1003A000AF900895FC01538D448D252F30E0842FAC
:1003B00090E0821B930B541710F0CF96089501978D
:1003C0000895FC01918D828D981761F0A28DAE0F7A
:1003D000BF2FB11D5D968C91928D9F5F9F73928F01
:1003E00090E008958FEF9FEF0895FC01918D828D2D
:1003F000981731F0828DE80FF11D858D90E00895FA
:100400008FEF9FEF0895FC01918D228D892F90E051
:10041000805C9F4F821B91098F73992708958FE20B
:1004200091E00E94030221E0892B09F420E0822F51
:10043000089580E090E0892B29F00E940F0281113D
:100440000C9400000895FC01A48DA80FB92FB11DD4
:10045000A35ABF4F2C91848D90E001968F739927FA
:10046000848FA689B7892C93A089B1898C918370D8
:1004700080648C93938D848D981306C00288F389D1
:10048000E02D80818F7D80830895EF92FF920F93FE
:100490001F93CF93DF93EC0181E0888F9B8D8C8D30
:1004A00098131AC0E889F989808185FF15C09FB724
:1004B000F894EE89FF896083E889F98980818370E7
:1004C000806480839FBF81E090E0DF91CF911F9196
:1004D0000F91FF90EF900895F62E0B8D10E00F5FB7
:1004E0001F4F0F731127E02E8C8D8E110CC00FB68D
:1004F00007FCFACFE889F989808185FFF5CFCE0125
:100500000E942302F1CFEB8DEC0FFD2FF11DE35A7A
:10051000FF4FF0829FB7F8940B8FEA89FB898081A7
:100520008062CFCFCF93DF93EC01888D8823B9F021
:10053000AA89BB89E889F9898C9185FD03C08081EE
:1005400086FD0DC00FB607FCF7CF8C9185FFF2CF6B
:10055000808185FFEDCFCE010E942302E9CFDF919C
:10056000CF910895FC0101900020E9F73197AF0188
:10057000481B590BBC018FE291E00C94A5018F92AE
:100580009F92AF92BF920F931F93CF93DF93CDB7FC
:10059000DEB7A1970FB6F894DEBF0FBECDBF19A28C
:1005A000423008F44AE08E010F5D1F4F842E912CDB
:1005B000B12CA12CA50194010E94FE04E62FB901E3
:1005C000CA01EA30F4F4E05DD801EE938D01232BEB
:1005D000242B252B79F790E080E0109719F0CD01BE
:1005E0000E94B202A1960FB6F894DEBF0FBECDBF37
:1005F000DF91CF911F910F91BF90AF909F908F90FF
:100600000895E95CE1CFCF93DF930E94B202EC0141
:1006100082E191E00E94B2028C0F9D1FDF91CF9189
:100620000895CF93DF93682F70E090E080E04AE078
:100630000E94BF02EC0182E191E00E94B2028C0FA5
:100640009D1FDF91CF9108951F920F920FB60F92C9
:1006500011242F933F938F939F93AF93BF938091D8
:10066000270190912801A0912901B0912A01309190
:10067000260123E0230F2D3758F50196A11DB11D4A
:10068000209326018093270190932801A0932901AC
:10069000B0932A0180912B0190912C01A0912D0102
:1006A000B0912E010196A11DB11D80932B01909355
:1006B0002C01A0932D01B0932E01BF91AF919F917A
:1006C0008F913F912F910F900FBE0F901F90189513
:1006D00026E8230F0296A11DB11DD2CF1F920F92C3
:1006E0000FB60F9211242F933F934F935F936F9305
:1006F0007F938F939F93AF93BF93EF93FF938FE27B
:1007000091E00E942302FF91EF91BF91AF919F91E1
:100710008F917F916F915F914F913F912F910F90AA
:100720000FBE0F901F9018951F920F920FB60F9249
:1007300011242F938F939F93EF93FF93E0913F01A9
:10074000F09140018081E0914501F091460182FDE8
:100750001BC09081809148018F5F8F732091490168
:10076000821741F0E0914801F0E0E15DFE4F958F86
:1007700080934801FF91EF919F918F912F910F905E
:100780000FBE0F901F9018958081F4CF789484B598
:10079000826084BD84B5816084BD85B5826085BD7D
:1007A00085B5816085BD80916E00816080936E000B
:1007B00010928100809181008260809381008091FD
:1007C00081008160809381008091800081608093AE
:1007D00080008091B10084608093B1008091B0006E
:1007E00081608093B00080917A00846080937A0069
:1007F00080917A00826080937A0080917A00816093
:1008000080937A0080917A00806880937A001092B9
:10081000C100E0913F01F091400182E08083E091CE
:100820003B01F0913C011082E0913D01F0913E01CD
:100830008FEC808310924701E0914301F0914401D5
:1008400086E08083E0914101F091420180818061E6
:100850008083E0914101F091420180818860808332
:10086000E0914101F0914201808180688083E091B4
:100870004101F091420180818F7D808382E00E945E
:10088000870083E00E94870084E00E94870085E063
:100890000E94870086E00E94870087E00E94870010
:1008A00088E00E94870089E00E9487008AE00E9419
:1008B00087008DE00E94870085E191E00E9403039C
:1008C000109224018DE780932501C0E0D0E0609173
:1008D000250170E088E00E94F2006091240170E040
:1008E00089E00E94F20061E08DE00E94A60060E9CC
:1008F00071E080E090E00E94730160E08DE00E9472
:10090000A60068EC70E080E090E00E9473018FE246
:1009100091E00E940302892B89F08FE291E00E940E
:10092000E101182F0E9411038BE191E0113321F0B6
:10093000123369F48EE191E00E940303209739F2AB
:100940000E940F02882319F20E940000C0CF1B32C0
:10095000D9F4609124018AE0860F8093240180916C
:100960002501865F80932501665F70E090E080E05E
:100970004AE00E94BF0282E291E00E94B2028091AE
:1009800025010E941103DACF1D32C1F660912401C6
:100990006A5060932401809125018A50809325013B
:1009A000E4CFEFE2F1E01382128288EE93E0A0E060
:1009B000B0E084839583A683B78384E091E091833C
:1009C000808385EC90E09587848784EC90E097871E
:1009D000868780EC90E0918B808B81EC90E0938B0C
:1009E000828B82EC90E0958B848B86EC90E0978BE9
:1009F000868B118E128E138E148E0895A1E21A2EFC
:100A0000AA1BBB1BFD010DC0AA1FBB1FEE1FFF1FB2
:100A1000A217B307E407F50720F0A21BB30BE40B02
:100A2000F50B661F771F881F991F1A9469F7609549
:100A30007095809590959B01AC01BD01CF01089503
:100A4000EE0FFF1F0590F491E02D0994F894FFCF6D
:100A5000000000004502A501D20192020302E1015B
:100A6000F5010D0A0068656C6C6F006F6E006F66B3
:040A700066002000FC
:107E0000112484B714BE81FFF0D085E080938100F7
:107E100082E08093C00088E18093C10086E0809377
:107E2000C20080E18093C4008EE0C9D0259A86E02C
:107E300020E33CEF91E0309385002093840096BBD3
:107E4000B09BFECF1D9AA8958150A9F7CC24DD24C4
:107E500088248394B5E0AB2EA1E19A2EF3E0BF2EE7
:107E6000A2D0813461F49FD0082FAFD0023811F036
:107E7000013811F484E001C083E08DD089C08234E0
:107E800011F484E103C0853419F485E0A6D080C0E4
:107E9000853579F488D0E82EFF2485D0082F10E0AE
:107EA000102F00270E291F29000F111F8ED06801E7
:107EB0006FC0863521F484E090D080E0DECF843638
:107EC00009F040C070D06FD0082F6DD080E0C81688
:107ED00080E7D80618F4F601B7BEE895C0E0D1E017
:107EE00062D089930C17E1F7F0E0CF16F0E7DF06D8
:107EF00018F0F601B7BEE89568D007B600FCFDCFD4
:107F0000A601A0E0B1E02C9130E011968C91119780
:107F100090E0982F8827822B932B1296FA010C0160
:107F200087BEE89511244E5F5F4FF1E0A038BF0790
:107F300051F7F601A7BEE89507B600FCFDCF97BE46
:107F4000E89526C08437B1F42ED02DD0F82E2BD052
:107F50003CD0F601EF2C8F010F5F1F4F84911BD097
:107F6000EA94F801C1F70894C11CD11CFA94CF0C13
:107F7000D11C0EC0853739F428D08EE10CD085E9AC
:107F80000AD08FE07ACF813511F488E018D01DD067
:107F900080E101D065CF982F8091C00085FFFCCF94
:107FA0009093C60008958091C00087FFFCCF809118
:107FB000C00084FD01C0A8958091C6000895E0E648
:107FC000F0E098E1908380830895EDDF803219F02E
:107FD00088E0F5DFFFCF84E1DECF1F93182FE3DFCA
:107FE0001150E9F7F2DF1F91089580E0E8DFEE27F6
:047FF000FF270994CA
:027FFE00040479
:00000001FF
